:400000000010002011000000310400003104000010B500F015FAC04670B5164C23688022D20213432360182000F086FC2268124B13402360114A124B1A602022114B1A6039
:40004000103A114B1A6080221206104B1A60002525600F4A0F4B1A600F4A104B1A601049092000F035FC092000F026FC0D4B1D6070BDC04600010B40FFFFFBFF060000801C
:4000800004010B400C0202403002024008010B4001000080000002400200008040000240490B00000C020B4010B572B60122274B1A7000240FE026486200131959000B00E5
:4000C000411889881A5AC31858880004104300F0A9F90134E4B2012CEDD91D490C311D48043000F085F91C4A1C4B1A601C4A1D4B1A6099231B041C4A1360C02189041B4A00
:4001000011601B4A136005221A4B1A6001321A4B1A601A490B783632934314221343DBB20B70174A117816230B43DBB213703222144B1A60144A154B1A602022144B1A60A5
:40014000144A154B1A60FFF767FF10BD1C700F40B80D0000380F00000000F3FF000001400FEE00000C00014000500F4008500F4030500F402000004000800F4001700F40B6
:4001800000700F4000000440106027000800044018000440810D00000803044010B5064C2378002B07D1054B002B02D0044800E000BF0123237010BD40010020000000004E
:4001C000540D0000084B10B5002B03D00749084800E000BF07480368002B00D110BD064B002BFBD09847F9E70000000044010020540D0000C00000200000000070B50400F1
:400200000D001600022000F04DFA0CE032000021200000F031FA00F001FA0028FBD00A2000F068FB0134AC42F0D9012000F0BEF9642000F05FFB70BD10B52238162800D988
:400240008DE08000474B1B589F460A00464982208000FFF7D3FF82E00A00E8214900B620FF30FFF7CBFF7AE00A00DA214900CC204000FFF7C3FF72E00A00B0214900A220DD
:400280004000FFF7BBFF6AE00A004421FF3193204000FFF7B3FF62E00A00EB21CE20FFF7ADFF5CE00A003149F6204000FFF7A6FF55E00A00EC21FF31D220FF30FFF79EFF01
:4002C0004DE00A009821FF31BE204000FFF796FF45E00A007C21FF316220FF30FFF78EFF3DE00A002621FF310A20FF30FFF786FF35E00A0084214900EC20FFF77FFF2EE0F8
:400300000A0018210020FFF779FF28E00A0032211920FFF773FF22E00A004B213320FFF76DFF1CE00A0064214C20FFF767FF16E00A007D216520FFF761FF10E00A0097213B
:400340007E20FFF75BFF0AE00A00B2219820FFF755FF04E00A00CD21B320FFF74FFF002010BDC046580D0000230200000702000070B504000D00042000F094F90FE018204F
:4003800000F05AF902000021200000F075F900F045F90028FBD00A2000F0ACFA0134AC42EDD9012000F002F9642000F0A3FA70BD70B562B600F0B2F900F02CFC0B490020E1
:4003C000FFF7D6FF3325212400E00A252800183000F032F901002000FFF72EFF0134382C00D900240A35632DEFDCEFE726020000F0B50025002711E0BB00C658F3B2FF2208
:40040000964308E06A008A181478A419527822700135013BDBB2002BF4D10137062FEBD9F0BDC04610B50A00002100F08BFC10BD10B500F05BFC03680C2B00D1FEE7FEE7FA
:4004400070B50F4E0F4D13E029686B68AC68002202E001C901C30432A242FAD1E868002202E0002102C304328242FAD11035013E002EE9D100F040FCFFF79AFFFEE7C046AB
:40048000010000006C13000010B500230AE0032B03D89A000949505800E009489900094A885001332F2BF2D9FFF7FEFD8022D205116801230B43136010BDC0460000000064
:4004C000310400000000002010B51149114B0A6853434A689B189B000F481B580F480068C3400F4800680340DCB20E4804701C0AE4B204701B0C8B60DBB2037001324A601F
:40050000094B9A4202D91122084B1A7010BDC0465C01002026020000A00100203C0A0020380A002040000F402502000070000F402122154B1A70154A136801331360002B51
:400540001ED1DBB2124A1370104A124B11684B4311495B5811490968CB40114909680B40D8B210490870180AC0B208701B0CD360DBB20B70012353601922034B1A7002E0D4
:400580000122094B1A60704770000F405C01002071000F4098080000A00100203C0A0020380A002040000F40400A0020002804D00023114A1360114A13700F48104B02688E
:4005C0005343104A9B58104A1268D3400F4A12681340D9B20E4A1170190AC9B211701B0CDBB213700123436019220A4B1A700022094B1A607047C0465C01002071000F4086
:4006000098080000A00100203C0A0020380A002040000F4070000F40400A0020044B1868002803D00022034B1A7001207047C046400A002070000F408000014BC058704773
:40064000580F000010B500240CE0084B63439B189B0007495850013200E00022054B9A42F3D90134002CF8D010BDC04626020000A00100202502000000280CDB00290ADBA9
:40068000054B984207DC002905DC044B594308188000034BC25070472502000026020000A001002002280FD002D8012805D020E0032810D0042815D01BE0124A124B1A6046
:4006C0000122124B1A601BE0114A0F4B1A6002220E4B1A6014E00F4A0B4B1A6003220B4B1A600DE00C4A084B1A600422074B1A6006E001225242044B1A600022034B1A607B
:400700007047C0467F7F7F7F380A00203C0A00203F3F3F3F1F1F1F1F0F0F0F0F10B50322184B1A700B32184B1A70023A174B1A70053A174B1A70174C012323701820FFF7E8
:400740007BFFFFF77FFF00232370002000F02CF80020FFF7A7FF104B1B7F002B0ED101220D4B1A770D4800F067F80D4800F096F8012000F045F8002000F072F80122094B24
:400780001A6010BD91000F4041000F4021000F4031000F4070000F405C01002031050000C9040000400A002000280CD10C4A0D4B1A6005220C4B1A6002320C4B1A60193274
:4007C0000B4B1A600BE0064A064B1A600522064B1A600232054B1A601932054B1A607047381100004C0A0020440A0020500A0020480A0020014B18647047C04600000020A9
:4008000010B5040000F06AFA044A1368C0218B43A4011C43146000F065FA10BD00E400E00122014B1A60704700E100E00122014B1A60704780E100E010B50400FFF7F6FFD5
:400840002000FFF7D7FF0320FFF7DAFFFFF7E8FF10BDC046014B98647047C0460000002010B5040000F03AFA044A1168044B0B40A4051C43146000F035FA10BD00E400E04B
:40088000FFFF3FFF0422014B1A60704700E100E00422014B1A60704780E100E010B50400FFF7F6FF2000FFF7D5FF0320FFF7D8FFFFF7E8FF10BDC0461F2318401E3B8340C0
:4008C000014A13607047C04600E100E001BE704770B504000D001F2802D90020FFF7F6FF1034A40080239B059C4664442068256070BDC04610B5040006E0084B586800F03C
:40090000E3F9074B9C46644480231B029C42F4D8024B9868604300F0D7F910BDC40000200080FFFF10B5034B1B7B584300F0CCF910BDC046C4000020F0B557464E46C0B4BC
:4009400083B0040000F0CAF90190E71E2D2F74D83F4B1B78DBB29C4208D83E4B1B78DBB29A463D4B1B78DBB2994631E03B4B1B78DBB29C4208D83A4B1B78DBB29A46394B59
:400980001B78DBB2994623E0374B1B78DBB29C4208D8364B1B78DBB29A46354B1B78DBB2994615E0334B1B78DBB29C4208D8324B1B78DBB29A46314B1B78DBB2994607E0A5
:4009C0002F4B1B78DBB29A462E4B1B78DBB299462D4BDE5D2F2E09D92A2C07D919222B4B1A60052000F070F9192503E0274B1D683F231D40B54206D9234BDA5D234B1A60FA
:400A0000052000F061F91F4B9C4664442378DBB21F4A13601F4B52461A601F4B4A461A600520FFF77FFFB5420AD2174BDA5D174B1A60052000F048F902E00020FFF746FFEB
:400A4000019800F04FF903B00CBC91469A46F0BDC0F1FF0FC1F1FF0FC2F1FF0FC3F1FF0FC4F1FF0FC5F1FF0FC6F1FF0FC7F1FF0FC8F1FF0FC9F1FF0FCAF1FF0FCBF1FF0F90
:400A8000CCF1FF0FCDF1FF0F181300002CFF0B4028FF0B401CFF0B4020FF0B40034B1868C0231B02184000D00120704700010B4010B500F013F9044A1368C02109020B43DE
:400AC000136000F00FF910BD00010B4010B500F005F908490A68084B1A408024E40122430A600A6813408022120213430B6000F0F9F810BD00010B40FF3FFFFF70B505005B
:400B000000F0ECF80400FFF7C9FF002803D0FFF7DDFF012100E0002108482840084A1568084B2B40184310601368012901D1FFF7BFFF200000F0D6F870BDC04604040400D7
:400B400010020B40FBFBFBFF10B5244B1B685B0715D5234B1B685B070ED5224BD969042001401F4C22688A432260DA698243DA611B69002B00D098470420FFF7BFFF174BBC
:400B80001B685B0518D5164B1B685B0510D5154BD9698022D2001140114802688A430260D969114A0A40DA615B69002B00D098478020C000FFF7A2FF084B1B685B030CD517
:400BC000074B1B685B0304D5064B9B69002B00D098478020C002FFF791FF10BD10020B40D80000207C010020FFFBFFFF10B500F061F810BD10B500F01DF810BD10B5044A96
:400C00001368802109060B431360FFF7EFFF10BD0000074010B5064B1B78002B04D1FFF7E9FF0122024B1A70FFF7E8FF10BDC0469C010020104A114B1A600122104B1A60BA
:400C4000104B114A13600721104A1160104A13600023104A1360104A1360104A1360104A1360104A1360104A1360104A136012680F4B1A807047C046070000010000074053
:400C8000200007400701008000030740040307400002074004020740880E0740C80E0740480F0740080F0740C80F0740880F07409E010020024B1A88024B1A607047C046F3
:400CC0009E010020880F07400230800804D0C0460138FDD1C046C046C0467047EFF3108072B6704780F310887047C046014B18687047C0463C0100200E4B70B500251E0033
:400D00000D4CE41AA410A54204D0AB00F35898470135F8E700F018FB084B00251E00084CE41AA410A54204D0AB00F35898470135F8E770BD5413000054130000541300005D
:400D40005C13000003008218934202D019700133FAE77047000000004A02000058020000680200007802000088020000980200005E0300005E0300005E030000A4020000F4
:400D8000B2020000C2020000D2020000E2020000F2020000000300000C0300001803000024030000300300003C0300004803000054030000FFFFFF0000300F4000040040E7
:400DC0000F400004011811182114310C006D0212030804A40504065307900B570E89120C15021649172019A01A491B5F1C0C215722492308240226102D013007333034389F
:400E000035C036C0370F38203A803B28401245C046E047B0482A49FF4AFF4BFF580459045A045B045F0162C0644065018006810182388308861088028B108C018F19910378
:400E400092019408962699049C019F10A002A204A308A401A706A801AC04B00EB220B307B418B508B601B710B908BE40BF50C025C520C622C751C83EC9FFCAFFCBFFCDA049
:400E8000D804D904DA04DB04DF01E040E140E2C0E4C0E6C001820320040405020608070108400A400B550E820F2010A015021601171419821B301C241D841E80200122047E
:400EC00023142620272229822D012F20320433203542372038013A103B043C203E403F01400547204B014C804F80512156195740584059106134634069016A406E026F1585
:400F0000702071408620C0FDC2BFC4FCCAC9CCB6CEB7D02CD210D60CD803AB02B580EA10660869026F088501D880DA80DC20E640AB08B608EE8001011001000004000F40CC
:400F400064300F4043310F4003330F4008400F4003410F4002600F40FFFF0000FFCC0000FF990000FF330000FF000000B3006600990099006600B3003300CC001919B30091
:400F80000033990000409900006699000099990000CC990000E6660000FF000033FF000066FF000080FF000099FF0000B2FF0000CCFF0000E5FF0000000000000000550048
:400FC0000000AA000000FF0055000000550055005500AA005500FF00AA000000AA005500AA00AA00AA00FF00FF000000FF005500FF00AA00FF00FF00005500000055550057
:401000000055AA000055FF0055550000555555005555AA005555FF00AA550000AA555500AA55AA00AA55FF00FF550000FF555500FF55AA00FF55FF0000AA000000AA5500C6
:4010400000AAAA0000AAFF0055AA000055AA550055AAAA0055AAFF00AAAA0000AAAA5500AAAAAA00AAAAFF00FFAA0000FFAA5500FFAAAA00FFAAFF0000FF000000FF550036
:4010800000FFAA0000FFFF0055FF000055FF550055FFAA0055FFFF00AAFF0000AAFF5500AAFFAA00AAFFFF00FFFF0000FFFF5500FFFFAA00FFFFFF00FF800000FF008000A5
:4010C000FF00FF008000FF000080FF0000FF8000FF00000020202000000020000000001000FF000030FF0000FFFFFFFF000000FF808080FF404040FF0000FF000010F00080
:401100000020E0000030D0000040C0000050B0000060A00000709000008080000090700000A0600000B0500000C0400000D0300000E0200000FF0000000000000000005F51
:4011400000000007000700147F147F14242A7F2A12231308646236495522500005030000001C2241000041221C00082A1C2A0808083E0808005030000008080808080060E8
:4011800060000020100804023E5149453E00427F400042615149462141454B311814127F1027454545393C4A49493001710905033649494936064949291E00363600000036
:4011C000563600000008142241141414141441221408000201510906324979413E7E1111117E7F494949363E414141227F4141221C7F494949417F090901013E4141513299
:401200007F0808087F00417F41002040413F017F081422417F404040407F0204027F7F0408107F3E4141413E7F090909063E4151215E7F09192946464949493101017F0107
:40124000013F4040403F1F2040201F7F2018207F63140814630304780403615149454300007F4141020408102041417F0000040201020440404040400001020400205454C0
:4012800054787F484444383844444420384444487F3854545418087E090102081454543C7F0804047800447D40002040443D00007F10284400417F40007C041804787C08D6
:4012C00004047838444444387C14141408081414187C7C080404084854545420043F4440203C4040207C1C2040201C3C4030403C44281028440C5050503C4464544C4400EB
:401300000836410000007F0000004136080008082A1C08081C2A0808030405060708090A0B0C0E0F101112131415161718191B1C1D1E1F2021222325262728292A2B2E2FB3
:401340003031323334354300F8B5C046F8BC08BC9E467047C501000089040000F8B5C046F8BC08BC9E4670479D01000080130000C00000208000000018090000000000006A
:4013800000000000010000000000E02EC05D00001800000000366E0104040400000000000000000000000000000000000000000000000000000000000000000046130000DF
:4013C000000000000000000000000000000000000000000000000000000000000000000000000000000000000000000000000000000000000000000000000000DC000020F1
:4014000000000000000000000000000000000000000000000000000000000000000000000000000000000000000000000000000000000000000000000000000000000000AC
:40144000000000000000000000000000000000000000000000000000000000000000000000000000000000000000000000000000000000000000000000000000000000006C
:40148000000000000000000000000000000000000000000000000000000000000000000000000000000000000000000000000000000000000000000000000000000000002C
:4014C00000000000000000000000000000000000000000000000000000000000000000000000000000000000000000000000000000000000000000000000000000000000EC
:0200000490303A
:0200000000D02E
:0200000490402A
:200000000000000000000000000000000000000000000000000000000000000000000000E0
:0200000490501A
:0C000000000204C81193110104CE126329
:0200000490600A
:0100000001FE
:00000001FF